:100000000C9463000C948B000C948B000C948B006C
:100010000C948B000C948B000C948B000C948B0034
:100020000C948B000C948B000C948B000C948B0024
:100030000C948B000C948B000C948B000C948B0014
:100040000C94D7020C948B000C9451040C949F04D4
:100050000C948B000C948B000C948B000C948B00F4
:100060000C948B000C948B000000000024002700EF
:100070002A0000000000250028002B0000000000DE
:1000800023002600290004040404040404040202DA
:100090000202020203030303030301020408102007
:1000A0004080010204081020010204081020000012
:1000B0000007000201000003040600000000000029
:1000C00000008D000B0611241FBECFEFD8E0DEBF6D
:1000D000CDBF11E0A0E0B1E0E0EFFFE002C005908D
:1000E0000D92A633B107D9F711E0A6E3B1E001C044
:1000F0001D92AE3FB107E1F710E0C6ECD0E004C0BE
:100100002297FE010E94F207C23CD107C9F70E9464
:1001100061060C94F6070C940000CF92EF920F93B7
:1001200086E391E06CE04BE025E004E053E0E52E4F
:1001300032E0C32E0E949E020F91EF90CF9008955F
:10014000EF92FF920F931F930CED11E0C8010E94F4
:1001500092057C01C80160E071E00E94AC07C80113
:10016000B7014AE050E00E948D0706E311E0C801A4
:1001700060E040E00E94B101C80166E071E00E94C9
:10018000AC07C80160E041E00E94B101C801B701BD
:100190004AE050E00E947A0764E670E080E090E078
:1001A0000E941F031F910F91FF90EF90089586E327
:1001B00091E060E142E020E00E94E8018CED91E0F6
:1001C00040E855E260E070E00E94DA0408950F9381
:1001D0001F938C01FC01868160E00E94FC0381E09A
:1001E00090E00E947803F801868161E00E94FC03A0
:1001F00081E090E00E947803F801868160E00E942F
:10020000FC0384E690E00E9478031F910F9108950B
:10021000CF92DF92EF92FF920F931F93CF93DF93D2
:10022000D82EC92E282F392FC9018C01C0E0D0E06B
:10023000E62EFF24F801878161E00E94BD03B7012B
:100240000C2E02C0759567950A94E2F76170F8016B
:1002500087810E94FC0321960F5F1F4FC830D10594
:1002600049F78D2D9C2D0E94E700DF91CF911F91C2
:100270000F91FF90EF90DF90CF900895CF92DF9293
:10028000EF92FF920F931F93CF93DF93D82EC92E37
:10029000282F392FC9018C01C0E0D0E0E62EFF24C1
:1002A000F801878161E00E94BD03B7010C2E02C0F6
:1002B000759567950A94E2F76170F80187810E944D
:1002C000FC0321960F5F1F4FC430D10549F78D2DD8
:1002D0009C2D0E94E700DF91CF911F910F91FF901D
:1002E000EF90DF90CF9008951F93CF93DF93EC01B1
:1002F000162F8C81642F0E94FC038D818F3F19F093
:1003000060E00E94FC038F8584FF05C0CE01612F51
:100310000E9408010EC0612F70E084E0759567951A
:100320008A95E1F7CE010E943E01CE01612F0E9425
:100330003E01DF91CF911F91089541E00E94740129
:1003400081E090E0089540E00E9474010895FC016E
:100350006089862F8460808B6C60CF010E94A3012E
:100360000895DF93CF93CDB7DEB728970FB6F894F3
:10037000DEBF0FBECDBF9C01FE013196AEE1B1E004
:1003800088E00D9001928150E1F7F90183894817C7
:1003900010F0482F4150E42FF0E0EE0FFF1FEC0F5C
:1003A000FD1F8181680F6068C9010E94A301289622
:1003B0000FB6F894DEBF0FBECDBFCF91DF91089589
:1003C00061E00E94A30180ED97E00E947803089508
:1003D000CF93DF93EC01423018F08F8588608F87D0
:1003E0004B8B1C8A222329F0413019F48F858460BD
:1003F0008F8780E593EC0E9478038C8160E00E94F7
:10040000FC038E8160E00E94FC038D818F3F19F018
:1004100060E00E94FC036F8564FD1DC0CE0163E0B7
:100420000E943E0184E991E10E947803CE0163E0DD
:100430000E943E0184E991E10E947803CE0163E0CD
:100440000E943E0186E990E00E947803CE0162E0BE
:100450000E943E0116C06062CE010E94A30184E9A1
:1004600091E10E9478036F856062CE010E94A30132
:1004700086E990E00E9478036F856062CE010E9459
:10048000A3016F856062CE010E94A30184E0888B86
:10049000CE010E94A701CE010E94E00182E0898B7B
:1004A000CE0166E00E94A301DF91CF9108956F9283
:1004B0007F928F92AF92CF92EF920F931F93DF9321
:1004C000CF93CDB7DEB73C01162F842FF3014483C1
:1004D00025830683E782C086A18682869D859387D1
:1004E0009E8594879F8595879889968761E00E946D
:1004F000BD03F30185818F3F19F061E00E94BD03C8
:10050000F301868161E00E94BD03112319F0F3011C
:10051000178603C080E1F3018787C30160E141E0F2
:1005200020E00E94E801CF91DF911F910F91EF90A1
:10053000CF90AF908F907F906F9008958F92AF92F1
:10054000CF92EF920F931F93CF93DF93DC01362F5F
:10055000542F722F102FAE2C8C2C13961C921E929F
:1005600012978AE191E011969C938E9300D000D06F
:10057000EDB7FEB73196CDB7DEB719821182128280
:100580001382CD0161E0432F2FEF052FE72EC12EFF
:100590000E9457020F900F900F900F90DF91CF9114
:1005A0001F910F91EF90CF90AF908F9008951F9271
:1005B0000F920FB60F9211242F933F938F939F9317
:1005C000AF93BF9380914F0190915001A091510141
:1005D000B0915201309153010196A11DB11D232FFD
:1005E0002D5F2D3720F02D570196A11DB11D2093B1
:1005F000530180934F0190935001A0935101B09308
:10060000520180914B0190914C01A0914D01B0910C
:100610004E010196A11DB11D80934B0190934C0199
:10062000A0934D01B0934E01BF91AF919F918F91D7
:100630003F912F910F900FBE0F901F9018959B0127
:10064000AC017FB7F89480914B0190914C01A0913F
:100650004D01B0914E0166B5A89B05C06F3F19F0E2
:100660000196A11DB11D7FBFBA2FA92F982F8827F2
:10067000860F911DA11DB11D62E0880F991FAA1F51
:10068000BB1F6A95D1F7BC012DC0FFB7F8948091CC
:100690004B0190914C01A0914D01B0914E01E6B5F6
:1006A000A89B05C0EF3F19F00196A11DB11DFFBF2A
:1006B000BA2FA92F982F88278E0F911DA11DB11D2C
:1006C000E2E0880F991FAA1FBB1FEA95D1F7861B8E
:1006D000970B885E9340C8F2215030404040504014
:1006E00068517C4F211531054105510571F608957A
:1006F000019739F0880F991F880F991F029701976A
:10070000F1F70895789484B5826084BD84B58160E2
:1007100084BD85B5826085BD85B5816085BDEEE609
:10072000F0E0808181608083E1E8F0E010828081E8
:1007300082608083808181608083E0E8F0E0808156
:1007400081608083E1EBF0E0808184608083E0EB76
:10075000F0E0808181608083EAE7F0E0808184605E
:1007600080838081826080838081816080838081BA
:10077000806880831092C1000895CF93DF93482F43
:1007800050E0CA0186569F4FFC0134914A575F4F93
:10079000FA018491882369F190E0880F991FFC0188
:1007A000E859FF4FA591B491FC01EE58FF4FC59158
:1007B000D491662351F42FB7F8948C91932F909590
:1007C00089238C93888189230BC0623061F42FB711
:1007D000F8948C91932F909589238C938881832B07
:1007E00088832FBF06C09FB7F8948C91832B8C937E
:1007F0009FBFDF91CF910895482F50E0CA018255E5
:100800009F4FFC012491CA0186569F4FFC01949191
:100810004A575F4FFA013491332309F440C0222331
:1008200051F1233071F0243028F42130A1F022302E
:1008300011F514C02630B1F02730C1F02430D9F4BE
:1008400004C0809180008F7703C0809180008F7DED
:100850008093800010C084B58F7702C084B58F7DEF
:1008600084BD09C08091B0008F7703C08091B00033
:100870008F7D8093B000E32FF0E0EE0FFF1FEE5866
:10088000FF4FA591B4912FB7F894662321F48C9172
:100890009095892302C08C91892B8C932FBF08954A
:1008A00008951F920F920FB60F9211242F933F932A
:1008B0004F938F939F93EF93FF938091C00082FD9E
:1008C0001DC04091C60020919401309195012F5F89
:1008D0003F4F2F73307080919601909197012817A8
:1008E000390771F0E0919401F0919501EC5AFE4FB7
:1008F0004083309395012093940102C08091C600FB
:10090000FF91EF919F918F914F913F912F910F9078
:100910000FBE0F901F901895E091E801F091E9014A
:10092000E05CFF4F8191919120813181821B930B7B
:100930008F739070892B11F00E94500408951F92BC
:100940000F920FB60F9211242F933F938F939F9383
:10095000EF93FF932091D8013091D9018091DA0172
:100960009091DB012817390731F48091C1008F7D08
:100970008093C10014C0E091DA01F091DB01E856E8
:10098000FE4F20818091DA019091DB0101968F73F7
:1009900090709093DB018093DA012093C600FF9161
:1009A000EF919F918F913F912F910F900FBE0F90DC
:1009B0001F901895AF92BF92DF92EF92FF920F9324
:1009C0001F93CF93DF93EC017A018B01DD2440303C
:1009D00081EE580780E0680780E0780711F0DD2499
:1009E000D39491E0A92EB12CEC89FD89DD2069F02A
:1009F000C50108A002C0880F991F0A94E2F78083FE
:100A000060E079E08DE390E005C0108260E874E872
:100A10008EE190E0A80197010E94CE07215030405E
:100A200040405040569547953795279580E12030B6
:100A3000380720F0DD2011F0DD24D6CFE889F989D0
:100A40003083EA89FB89208319A2EE89FF894081DE
:100A500021E030E0C9010C8C02C0880F991F0A9474
:100A6000E2F7482B4083EE89FF894081C9010D8C54
:100A700002C0880F991F0A94E2F7482B4083EE8941
:100A8000FF894081C9010E8C02C0880F991F0A940A
:100A9000E2F7482B4083EE89FF8980810F8C02C0EA
:100AA000220F331F0A94E2F7209528232083DF9139
:100AB000CF911F910F91FF90EF90DF90BF90AF907B
:100AC0000895DC011C96ED91FC911D97E05CFF4FB1
:100AD0002191319180819181281B390B2F733070C6
:100AE000C9010895DC011C96ED91FC911D97E05C15
:100AF000FF4F20813181E054F040DF01AE5BBF4FFA
:100B00008D919C9111972817390719F42FEF3FEF1A
:100B100007C08D919C91E80FF91F8081282F30E04C
:100B2000C9010895DC011C96ED91FC911D97E05CD4
:100B3000FF4F20813181E054F040DF01AE5BBF4FB9
:100B40008D919C9111972817390719F42FEF3FEFDA
:100B500010C08D919C911197E80FF91F20818D9104
:100B60009C91119701968F73907011969C938E9320
:100B700030E0C9010895DC0191968C91919788230A
:100B800039F05496ED91FC915597808186FFF9CF0D
:100B900091961C920895CF93DF93EC01EE85FF852B
:100BA000E05CFF4F20813181E054F0402F5F3F4FE8
:100BB0002F733070DF01AE5BBF4F8D919C91119709
:100BC00028173907D1F3E05CFF4F80819181E05411
:100BD000F040E80FF91F6083EE85FF85E05CFF4F72
:100BE00031832083EE89FF89208181E090E00F8CA2
:100BF00002C0880F991F0A94E2F7282B208381E016
:100C000089A3EC89FD8980818064808381E090E004
:100C1000DF91CF9108951092DF011092DE0188EEEE
:100C200093E0A0E0B0E08093E0019093E101A09315
:100C3000E201B093E3018AE291E09093DD018093B9
:100C4000DC0184E591E09093E9018093E80188E973
:100C500091E09093EB018093EA0185EC90E0909312
:100C6000ED018093EC0184EC90E09093EF01809390
:100C7000EE0180EC90E09093F1018093F00181EC23
:100C800090E09093F3018093F20182EC90E09093D6
:100C9000F5018093F40186EC90E09093F701809346
:100CA000F60184E08093F80183E08093F90187E006
:100CB0008093FA0185E08093FB0181E08093FC0141
:100CC0000895CF93DF930E9482030E94D700CCE85F
:100CD000D4E00E94A0002097E1F30E948C04F9CF99
:100CE000CF92DF92EF92FF920F931F93CF93DF93F8
:100CF0007C016B018A01C0E0D0E00FC0D6016D918C
:100D00006D01D701ED91FC910190F081E02DC701BB
:100D10000995C80FD91F015010400115110571F731
:100D2000CE01DF91CF911F910F91FF90EF90DF9057
:100D3000CF900895EF92FF920F931F938C01DC01E7
:100D4000ED91FC910190F081E02D6DE009957C0121
:100D5000D801ED91FC910190F081E02DC8016AE08D
:100D600009959C012E0D3F1DC9011F910F91FF9008
:100D7000EF900895CF93DF93EC016115710519F49D
:100D800020E030E00FC0DB010D900020E9F7119763
:100D9000A61BB70BE881F9810280F381E02DAD013C
:100DA00009959C01C901DF91CF9108954F925F92FF
:100DB0007F928F929F92AF92BF92CF92DF92EF92EB
:100DC000FF920F931F93DF93CF93CDB7DEB7A19719
:100DD0000FB6F894DEBF0FBECDBF2C01742ECB0131
:100DE000223008F42AE019A231E2C32ED12CCC0E15
:100DF000DD1E822E9924AA24BB24672D752FA50100
:100E000094010E94CE0779018A01C801B701A501AA
:100E100094010E94AF07472D461B0894C108D108D2
:100E20004A3014F4405D01C0495CF6014083E1148E
:100E3000F1040105110521F07E2C5F2DC801DDCFE5
:100E4000C201B6010E94BA06A1960FB6F894DEBFA1
:100E50000FBECDBFCF91DF911F910F91FF90EF900B
:100E6000DF90CF90BF90AF909F908F907F905F90DA
:100E70004F900895CF92DF92EF92FF920F931F93BE
:100E8000CF93DF93EC016A017B012115310541F419
:100E9000E881F9810190F081E02D642F09951FC050
:100EA0002A303105D1F477FF17C0E881F98101902C
:100EB000F081E02D6DE209958C0144275527BA0198
:100EC0004C195D096E097F09CE012AE00E94D60601
:100ED0009801280F391F04C02AE00E94D6069C0101
:100EE000C901DF91CF911F910F91FF90EF90DF909B
:100EF000CF900895EF92FF920F931F937B019A0179
:100F00000027F7FC0095102FB801A7010E943A07AF
:100F10001F910F91FF90EF900895CF92DF92EF9283
:100F2000FF920F931F936C017B019A010027F7FC3E
:100F30000095102FB801A7010E943A078C01C60145
:100F40000E949A06080F191FC8011F910F91FF9068
:100F5000EF90DF90CF9008950E94BA060895629FA7
:100F6000D001739FF001829FE00DF11D649FE00DA1
:100F7000F11D929FF00D839FF00D749FF00D659F02
:100F8000F00D9927729FB00DE11DF91F639FB00D01
:100F9000E11DF91FBD01CF0111240895A1E21A2E10
:100FA000AA1BBB1BFD010DC0AA1FBB1FEE1FFF1F0D
:100FB000A217B307E407F50720F0A21BB30BE40B5D
:100FC000F50B661F771F881F991F1A9469F76095A4
:100FD0007095809590959B01AC01BD01CF0108955E
:100FE000EE0FFF1F0590F491E02D0994F894FFCFC8
:100FF000465352313A0054656D7065726174757272
:10100000652030433A00000000009D01700600009A
:1010100040001400540000000000CB05700661057C
:0610200092057205BB05FC
:00000001FF
