:100000000C9463000C948B000C948B000C948B006C
:100010000C948B000C948B000C948B000C948B0034
:100020000C948B000C948B000C948B000C948B0024
:100030000C948B000C948B000C948B000C948B0014
:100040000C94D6020C948B000C9472040C94C00493
:100050000C948B000C948B000C948B000C948B00F4
:100060000C948B000C948B000000000024002700EF
:100070002A0000000000250028002B0000000000DE
:1000800023002600290004040404040404040202DA
:100090000202020203030303030301020408102007
:1000A0004080010204081020010204081020000012
:1000B0000007000201000003040600000000000029
:1000C00000008D002C0611241FBECFEFD8E0DEBF4C
:1000D000CDBF11E0A0E0B1E0E2E0F0E102C00590A8
:1000E0000D92A233B107D9F711E0A2E3B1E001C04C
:1000F0001D92AA3FB107E1F710E0C6ECD0E004C0C2
:100100002297FE010E94FB07C23CD107C9F70E945B
:1001100082060C94FF070C940000CF92EF920F938D
:1001200082E391E06CE04BE025E004E053E0E52E53
:1001300032E0C32E0E949D020F91EF90CF90089560
:1001400082E391E060E142E020E00E94E70188ED77
:1001500091E040E855E260E070E00E94FB04089501
:10016000EF92FF920F931F938EE00E94BC0362E018
:1001700070E00E94B007162F072F88ED91E00E94D3
:10018000EC0562E3E62E61E0F62EC70160E040E098
:100190000E94B001C70160E071E00E948E07C701B4
:1001A00060E041E00E94B001C701612F702F4AE07A
:1001B00050E00E947B0764E670E080E090E00E94DF
:1001C0001E031F910F91FF90EF9008950F931F93BF
:1001D0008C01FC01868160E00E941D0481E090E0BA
:1001E0000E947703F801868161E00E941D0481E08E
:1001F00090E00E947703F801868160E00E941D0470
:1002000084E690E00E9477031F910F910895CF92AA
:10021000DF92EF92FF920F931F93CF93DF93D82E2D
:10022000C92E282F392FC9018C01C0E0D0E0E62E5D
:10023000FF24F801878161E00E94DE03B7010C2EE4
:1002400002C0759567950A94E2F76170F80187819D
:100250000E941D0421960F5F1F4FC830D10549F73A
:100260008D2D9C2D0E94E600DF91CF911F910F9163
:10027000FF90EF90DF90CF900895CF92DF92EF92B2
:10028000FF920F931F93CF93DF93D82EC92E282F61
:10029000392FC9018C01C0E0D0E0E62EFF24F8011F
:1002A000878161E00E94DE03B7010C2E02C07595C4
:1002B00067950A94E2F76170F80187810E941D0436
:1002C00021960F5F1F4FC430D10549F78D2D9C2D0E
:1002D0000E94E600DF91CF911F910F91FF90EF9068
:1002E000DF90CF9008951F93CF93DF93EC01162FEB
:1002F0008C81642F0E941D048D818F3F19F060E076
:100300000E941D048F8584FF05C0CE01612F0E94CD
:1003100007010EC0612F70E084E0759567958A959E
:10032000E1F7CE010E943D01CE01612F0E943D0107
:10033000DF91CF911F91089541E00E94730181E008
:1003400090E0089540E00E9473010895FC016089E7
:10035000862F8460808B6C60CF010E94A20108957B
:10036000DF93CF93CDB7DEB728970FB6F894DEBFF3
:100370000FBECDBF9C01FE013196A9E1B1E088E03E
:100380000D9001928150E1F7F9018389481710F02F
:10039000482F4150E42FF0E0EE0FFF1FEC0FFD1F40
:1003A0008181680F6068C9010E94A20128960FB67A
:1003B000F894DEBF0FBECDBFCF91DF91089561E00D
:1003C0000E94A20180ED97E00E9477030895CF93E9
:1003D000DF93EC01423018F08F8588608F874B8B5C
:1003E0001C8A222329F0413019F48F8584608F877D
:1003F00080E593EC0E9477038C8160E00E941D04ED
:100400008E8160E00E941D048D818F3F19F060E0B5
:100410000E941D046F8564FD1DC0CE0163E00E9433
:100420003D0184E991E10E947703CE0163E00E94DF
:100430003D0184E991E10E947703CE0163E00E94CF
:100440003D0186E990E00E947703CE0162E00E94C0
:100450003D0116C06062CE010E94A20184E991E1D3
:100460000E9477036F856062CE010E94A20186E937
:1004700090E00E9477036F856062CE010E94A20126
:100480006F856062CE010E94A20184E0888BCE015C
:100490000E94A601CE010E94DF0182E0898BCE017D
:1004A00066E00E94A201DF91CF9108956F927F9242
:1004B0008F92AF92CF92EF920F931F93DF93CF93D0
:1004C000CDB7DEB73C01162F842FF301448325837B
:1004D0000683E782C086A18682869D8593879E8556
:1004E00094879F8595879889968761E00E94DE03AF
:1004F000F30185818F3F19F061E00E94DE03F30173
:10050000868161E00E94DE03112319F0F301178652
:1005100003C080E1F3018787C30160E141E020E08F
:100520000E94E701CF91DF911F910F91EF90CF9043
:10053000AF908F907F906F9008958F92AF92CF92EF
:10054000EF920F931F93CF93DF93DC01362F542F3D
:10055000722F102FAE2C8C2C13961C921E92129779
:1005600085E191E011969C938E9300D000D0EDB779
:10057000FEB73196CDB7DEB719821182128213828F
:10058000CD0161E0432F2FEF052FE72EC12E0E94F2
:1005900056020F900F900F900F90DF91CF911F9107
:1005A0000F91EF90CF90AF908F9008951F920F9280
:1005B0000FB60F9211242F933F938F939F93AF9376
:1005C000BF9380914B0190914C01A0914D01B0914E
:1005D0004E0130914F010196A11DB11D232F2D5FBA
:1005E0002D3720F02D570196A11DB11D20934F01ED
:1005F00080934B0190934C01A0934D01B0934E0119
:100600008091470190914801A0914901B0914A0120
:100610000196A11DB11D8093470190934801A093BD
:100620004901B0934A01BF91AF919F918F913F9142
:100630002F910F900FBE0F901F9018959B01AC014A
:100640007FB7F8948091470190914801A0914901AA
:10065000B0914A0166B5A89B05C06F3F19F001969D
:10066000A11DB11D7FBFBA2FA92F982F8827860FF4
:10067000911DA11DB11D62E0880F991FAA1FBB1F0C
:100680006A95D1F7BC012DC0FFB7F894809147015E
:1006900090914801A0914901B0914A01E6B5A89B0B
:1006A00005C0EF3F19F00196A11DB11DFFBFBA2F84
:1006B000A92F982F88278E0F911DA11DB11DE2E053
:1006C000880F991FAA1FBB1FEA95D1F7861B970BAE
:1006D000885E9340C8F221503040404050406851FD
:1006E0007C4F211531054105510571F6089501979B
:1006F00039F0880F991F880F991F02970197F1F71A
:100700000895789484B5826084BD84B5816084BD89
:1007100085B5826085BD85B5816085BDEEE6F0E07A
:10072000808181608083E1E8F0E0108280818260D6
:100730008083808181608083E0E8F0E08081816057
:100740008083E1EBF0E0808184608083E0EBF0E087
:10075000808181608083EAE7F0E08081846080832B
:1007600080818260808380818160808380818068D5
:1007700080831092C1000895982F8E3008F09E500B
:100780009770809110018295880F880F807C892B4B
:1007900080937C0080917A00806480937A008091BD
:1007A0007A0086FDFCCF2091780040917900942F4B
:1007B00080E030E0282B392BC9010895CF93DF93D7
:1007C000482F50E0CA0186569F4FFC0134914A578A
:1007D0005F4FFA018491882369F190E0880F991F97
:1007E000FC01E859FF4FA591B491FC01EE58FF4F71
:1007F000C591D491662351F42FB7F8948C91932F1F
:10080000909589238C93888189230BC0623061F491
:100810002FB7F8948C91932F909589238C9388818E
:10082000832B88832FBF06C09FB7F8948C91832BAE
:100830008C939FBFDF91CF910895482F50E0CA015C
:1008400082559F4FFC012491CA0186569F4FFC019F
:1008500094914A575F4FFA013491332309F440C011
:10086000222351F1233071F0243028F42130A1F0FB
:10087000223011F514C02630B1F02730C1F02430F9
:10088000D9F404C0809180008F7703C080918000EC
:100890008F7D8093800010C084B58F7702C084B5AF
:1008A0008F7D84BD09C08091B0008F7703C0809197
:1008B000B0008F7D8093B000E32FF0E0EE0FFF1FBC
:1008C000EE58FF4FA591B4912FB7F894662321F409
:1008D0008C919095892302C08C91892B8C932FBF8A
:1008E000089508951F920F920FB60F9211242F931F
:1008F0003F934F938F939F93EF93FF938091C0000B
:1009000082FD1DC04091C60020919001309191015F
:100910002F5F3F4F2F733070809192019091930120
:100920002817390771F0E0919001F0919101E05B97
:10093000FE4F4083309391012093900102C080913B
:10094000C600FF91EF919F918F914F913F912F9111
:100950000F900FBE0F901F901895E091E401F09159
:10096000E501E05CFF4F8191919120813181821BF3
:10097000930B8F739070892B11F00E94710408956E
:100980001F920F920FB60F9211242F933F938F93C4
:100990009F93EF93FF932091D4013091D5018091E3
:1009A000D6019091D7012817390731F48091C10001
:1009B0008F7D8093C10014C0E091D601F091D701E2
:1009C000EC56FE4F20818091D6019091D70101967F
:1009D0008F7390709093D7018093D6012093C600B7
:1009E000FF91EF919F918F913F912F910F900FBEAB
:1009F0000F901F901895AF92BF92DF92EF92FF92E7
:100A00000F931F93CF93DF93EC017A018B01DD24C9
:100A1000403081EE580780E0680780E0780711F0E9
:100A2000DD24D39491E0A92EB12CEC89FD89DD2041
:100A300069F0C50108A002C0880F991F0A94E2F767
:100A4000808360E079E08DE390E005C0108260E88B
:100A500074E88EE190E0A80197010E94C30721503D
:100A6000304040405040569547953795279580E156
:100A70002030380720F0DD2011F0DD24D6CFE889C2
:100A8000F9893083EA89FB89208319A2EE89FF89DD
:100A9000408121E030E0C9010C8C02C0880F991F11
:100AA0000A94E2F7482B4083EE89FF894081C9010F
:100AB0000D8C02C0880F991F0A94E2F7482B4083DF
:100AC000EE89FF894081C9010E8C02C0880F991FF1
:100AD0000A94E2F7482B4083EE89FF8980810F8CCE
:100AE00002C0220F331F0A94E2F7209528232083A7
:100AF000DF91CF911F910F91FF90EF90DF90BF900A
:100B0000AF900895DC011C96ED91FC911D97E05C7F
:100B1000FF4F2191319180819181281B390B2F73D7
:100B20003070C9010895DC011C96ED91FC911D9770
:100B3000E05CFF4F20813181E054F040DF01AE5B8B
:100B4000BF4F8D919C9111972817390719F42FEFFA
:100B50003FEF07C08D919C91E80FF91F8081282FEE
:100B600030E0C9010895DC011C96ED91FC911D97C0
:100B7000E05CFF4F20813181E054F040DF01AE5B4B
:100B8000BF4F8D919C9111972817390719F42FEFBA
:100B90003FEF10C08D919C911197E80FF91F2081B4
:100BA0008D919C91119701968F73907011969C93E3
:100BB0008E9330E0C9010895DC0191968C91919754
:100BC000882339F05496ED91FC915597808186FFEA
:100BD000F9CF91961C920895CF93DF93EC01EE85A7
:100BE000FF85E05CFF4F20813181E054F0402F5FB2
:100BF0003F4F2F733070DF01AE5BBF4F8D919C91E3
:100C0000119728173907D1F3E05CFF4F808191815C
:100C1000E054F040E80FF91F6083EE85FF85E05C4B
:100C2000FF4F31832083EE89FF89208181E090E0AE
:100C30000F8C02C0880F991F0A94E2F7282B20839B
:100C400081E089A3EC89FD8980818064808381E0D3
:100C500090E0DF91CF9108951092DB011092DA01BC
:100C600088EE93E0A0E0B0E08093DC019093DD019A
:100C7000A093DE01B093DF0185E291E09093D9016A
:100C80008093D80180E591E09093E5018093E401A1
:100C900084E991E09093E7018093E60185EC90E090
:100CA0009093E9018093E80184EC90E09093EB014C
:100CB0008093EA0180EC90E09093ED018093EC0149
:100CC00081EC90E09093EF018093EE0182EC90E054
:100CD0009093F1018093F00186EC90E09093F30102
:100CE0008093F20184E08093F40183E08093F50126
:100CF00087E08093F60185E08093F70181E080939F
:100D0000F8010895CF93DF930E9481030E94A00011
:100D1000CDEAD4E00E94B0002097E1F30E94AD0438
:100D2000F9CFCF92DF92EF92FF920F931F93CF9361
:100D3000DF937C016B018A01C0E0D0E00FC0D601D7
:100D40006D916D01D701ED91FC910190F081E02D45
:100D5000C7010995C80FD91F015010400115110591
:100D600071F7CE01DF91CF911F910F91FF90EF901E
:100D7000DF90CF900895CF93DF93EC01611571055B
:100D800019F420E030E00FC0DB010D900020E9F7FE
:100D90001197A61BB70BE881F9810280F381E02D42
:100DA000AD0109959C01C901DF91CF9108954F9242
:100DB0005F927F928F929F92AF92BF92CF92DF927B
:100DC000EF92FF920F931F93DF93CF93CDB7DEB7D0
:100DD000A1970FB6F894DEBF0FBECDBF2C01742EC5
:100DE000CB01223008F42AE019A231E2C32ED12C23
:100DF000CC0EDD1E822E9924AA24BB24672D752FCC
:100E0000A50194010E94C30779018A01C801B701B5
:100E1000A50194010E949107472D461B0894C10823
:100E2000D1084A3014F4405D01C0495CF6014083AA
:100E3000E114F1040105110521F07E2C5F2DC8019C
:100E4000DDCFC201B6010E94BB06A1960FB6F89491
:100E5000DEBF0FBECDBFCF91DF911F910F91FF90ED
:100E6000EF90DF90CF90BF90AF909F908F907F904A
:100E70005F904F900895CF92DF92EF92FF920F9381
:100E80001F93CF93DF93EC016A017B01211531059C
:100E900041F4E881F9810190F081E02D642F0995FA
:100EA0001FC02A303105D1F477FF17C0E881F981DE
:100EB0000190F081E02D6DE209958C0144275527C2
:100EC000BA014C195D096E097F09CE012AE00E9422
:100ED000D7069801280F391F04C02AE00E94D706C0
:100EE0009C01C901DF91CF911F910F91FF90EF906D
:100EF000DF90CF900895EF92FF920F931F937B01A5
:100F00009A010027F7FC0095102FB801A7010E9455
:100F10003B071F910F91FF90EF9008950E94BB0631
:100F20000895629FD001739FF001829FE00DF11D33
:100F3000649FE00DF11D929FF00D839FF00D749F53
:100F4000F00D659FF00D9927729FB00DE11DF91FFF
:100F5000639FB00DE11DF91FBD01CF01112408955C
:100F600097FB092E07260AD077FD04D02ED006D095
:100F700000201AF4709561957F4F0895F6F79095CB
:100F800081959F4F0895A1E21A2EAA1BBB1BFD015C
:100F90000DC0AA1FBB1FEE1FFF1FA217B307E40758
:100FA000F50720F0A21BB30BE40BF50B661F771FB0
:100FB000881F991F1A9469F7609570958095909590
:100FC0009B01AC01BD01CF010895AA1BBB1B51E1E0
:100FD00007C0AA1FBB1FA617B70710F0A61BB70BA9
:100FE000881F991F5A95A9F780959095BC01CD014E
:100FF0000895EE0FFF1F0590F491E02D0994F894E9
:02100000FFCF20
:1010020054656D70657261747572652030433A0083
:1010120001000000009C01910600004000140054F1
:101022000000000000EC0591068205B3059305DC83
:021032000500B7
:00000001FF
